{
  "_format": "hh-sol-artifact-1",
  "contractName": "Market",
  "sourceName": "src/backend/contracts/Market.sol",
  "abi": [
    {
      "inputs": [
        {
          "internalType": "uint256",
          "name": "_feePercent",
          "type": "uint256"
        }
      ],
      "stateMutability": "nonpayable",
      "type": "constructor"
    },
    {
      "inputs": [],
      "name": "feeAccount",
      "outputs": [
        {
          "internalType": "address payable",
          "name": "",
          "type": "address"
        }
      ],
      "stateMutability": "view",
      "type": "function"
    },
    {
      "inputs": [],
      "name": "feePercent",
      "outputs": [
        {
          "internalType": "uint256",
          "name": "",
          "type": "uint256"
        }
      ],
      "stateMutability": "view",
      "type": "function"
    }
  ],
  "bytecode": "0x60c060405234801561001057600080fd5b5060405161028938038061028983398181016040528101906100329190610094565b60016000819055503373ffffffffffffffffffffffffffffffffffffffff1660808173ffffffffffffffffffffffffffffffffffffffff1660601b815250508060a08181525050506100de565b60008151905061008e816100c7565b92915050565b6000602082840312156100a657600080fd5b60006100b48482850161007f565b91505092915050565b6000819050919050565b6100d0816100bd565b81146100db57600080fd5b50565b60805160601c60a0516101856101046000396000609d01526000607901526101856000f3fe608060405234801561001057600080fd5b50600436106100365760003560e01c806365e17c9d1461003b5780637fd6f15c14610059575b600080fd5b610043610077565b60405161005091906100dd565b60405180910390f35b61006161009b565b60405161006e91906100f8565b60405180910390f35b7f000000000000000000000000000000000000000000000000000000000000000081565b7f000000000000000000000000000000000000000000000000000000000000000081565b6100c881610113565b82525050565b6100d781610145565b82525050565b60006020820190506100f260008301846100bf565b92915050565b600060208201905061010d60008301846100ce565b92915050565b600061011e82610125565b9050919050565b600073ffffffffffffffffffffffffffffffffffffffff82169050919050565b600081905091905056fea2646970667358221220ada1896ce2d466f908bff5f9bd9569ee9e5bd19fc7ac8da410551adf435fb6ac64736f6c63430008040033",
  "linkReferences": {},
  "deployedLinkReferences": {}
}